:04075D00C182C18311
:10058400D2B2D2C2D2C4C2B320C2107F647E0012DF
:1005940008EB20C20375320830C2FD20C4107F640A
:1005A4007E001208EB20C40375320430C4FDD2B3BC
:1005B400D2C2D2C4C2B220C2107F647E001208EB41
:1005C40020C20375320930C2FD20C4107F647E004E
:0D05D4001208EB20C40375320530C4FD226F
:1006E600E532B40405A200B39200E532B40505A2D2
:1006F60001B39201E532B40805A202B39202E532D3
:0C070600B40905A203B39203753210225F
:10052600AE24AF257C037DE8120283AD077F061259
:1005360006B5AE24AF257C037DE81202837E007FDC
:1005460064CFCDCFCECCCE120283AD077F07120685
:10055600B5AE24AF257C007D641202837E007F0A3F
:10056600CFCDCFCECCCE120283AD077F081206B513
:0E0576007D0A7F061206B57D0B7F010206B5D9
:1002E6007D0C7F011206B5AE26AF277C277D101246
:1002F6000283EF4E6009AD077F041206B5800FAE8C
:1003060026AF277C037DE8120283EF4E6021AE26DE
:10031600AF277C277D101202837E037FE8CFCDCFE7
:10032600CECCCE120283AD077F051206B5800FAE86
:1003360026AF277C007D64120283EF4E6046AE2610
:10034600AF277C037DE81202837E007F64CFCDCF8A
:10035600CECCCE120283AD077F061206B5AE26AF0F
:10036600277C007D641202837E007F0ACFCDCFCE2C
:10037600CCCE120283AD077F071206B5AE26AF2795
:100386007C008036AE26AF277C007D0A120283EF02
:100396004EAE26AF277C0060217D641202837E006C
:1003A6007F0ACFCDCFCECCCE120283AD077F071208
:1003B60006B5AE26AF277C0080007D0A1202837F39
:0503C600081206B5223B
:1004570020000812085112089F800612085E120831
:1004670092C3E52594DCE52494054014E52594C45E
:10047700E5249409400FE52594ACE524940D500537
:100487001208AC800312086BC3E52794E8E52694AD
:10049700034015E5279410E52694275010C3E52758
:1004A7009488E526941340051208B980031208784A
:0D04B7002001030208C6300103120885224F
:100632001206E62000083003051205268009300064
:10064200063003031202E620010B7F327E001208FD
:10065200EB7F6680143001141207E37522008F23AA
:100662007F327E001208EBAF231207F92002030249
:0906720007B33002031204572201
:10073E001207B312082212080F7F03120832120595
:0F074E00847F0312083212067B8E248F2580EFE2
:03000B0002000EE2
:0D000E00C0E00534E53470020533D0E03267
:03001B000205E1FA
:1005E100C0E0C0F0C083C082C0D075D000C000C0E0
:0D05F10001C002C003C004C005C006C00761
:1005FE000521120632E521B4C80F75210085332678
:09060E00853427753300753400B2
:10061700D007D006D005D004D003D002D001D00037
:0B062700D0D0D082D083D0F0D0E032E1
:10076100080801020408102040800D10C0F9A4B04F
:09077100999282F880907FC18EFC
:0B08EB00EF1FAC0670011E4C70F622DF
:1007B3007580FF53A01F43A08053A01FE4F580530F
:0907C300A01F43A0A053A01F22B7
:1006B50074072FF8E6F580E5A0541F44C0F5A0F5B2
:1006C500A053A01F74102DF8E6F580E5A0541F4433
:1006D500E0F5A07F967E001208EB7580FF53A01F02
:0106E50022F2
:0D0851005380FE53A01F43A08053A01F2220
:0D085E005380FD53A01F43A08053A01F2214
:0D086B005380FB53A01F43A08053A01F2209
:0D0878005380F753A01F43A08053A01F2200
:0D0885005380EF53A01F43A08053A01F22FB
:0D08920043800153A01F43A08053A01F22EC
:0D089F0043800253A01F43A08053A01F22DE
:0D08AC0043800453A01F43A08053A01F22CF
:0D08B90043800853A01F43A08053A01F22BE
:0D08C60043801053A01F43A08053A01F22A9
:10082200758CFF758AFF758904D2A9D28CD2AF224A
:10080F00538EBF53890F758B78758DECC28FD28E37
:03081F00D2AB2237
:0408D300D2A07F052B
:0808D70000AE071FEE70F922CC
:0F084200D2A11208D3C2A17F051208D7C2A022EB
:0C08DF00C2A11208D3D2A17F050208D7E5
:1007CC00C2A0A20692A17F051208D71208D3C2A01C
:0707DC00D2A17F050208D73E
:0A079800AB071208427F901207120F
:1007A2001208D3A2A19205C2A07F051208D7A20502
:0107B2002224
:02071200AD0731
:10071400E4FCC2A07F051208D7ED30E704D2A18023
:1007240002C2A17F051208D7D2A0ED25E0FD7F0506
:090734001208D70CBC08DBC2A0BE
:01073D002299
:10077B00E4FC1208D3ED25E0FD30A103430501C2D3
:0C078B00A07F051208D70CBC08E8AF05E1
:01079700223F
:10083200120798EB4440FF1207121207A20208DFC8
:1007E3001208427F911207121207A212077BAD076C
:0507F3001208DFAF0554
:0107F80022DE
:1007F9001207987F401207121207A2AF03120712BD
:060809001207A20208DF45
:10067B001207E3AC07E41201CE8F388E378D368C20
:10068B0035E4FBFA797F78431201278F388E378D4B
:10069B00368C357F007E407D9C7C45AB38AA37A9D4
:0906AB0036A83512001E120202ED
:0106B4002223
:1004C400751D10D2B2D2C2D2C4C2B320C2107F648E
:1004D4007E001208EB20C203751D0830C2FD20C443
:1004E400107F647E001208EB20C403751D0430C421
:1004F400FDD2B3D2C2D2C4C2B220C2107F647E0085
:100504001208EB20C203751D0930C2FD20C4107F00
:10051400647E001208EB20C403751D0530C4FDAFD2
:010524001DB9
:0105250022B3
:10001E00EC4D6011E8497017ED33EC3304600DE4DC
:10002E00FCFFFEFD22E933E8330470F802026E1283
:10003E00023958046009E4CC248150062850090284
:10004E000278284003020275C0E0EB4A7044B98082
:10005E0006D0E0FB020264EF4E701CBD8008EBFF81
:10006E00EAFEE9FD80EBE98DF0A4FEE5F002010762
:10007E00E9CDF9EAFEEBFFEF89F0A4FCE5F0CE89BD
:10008E00F0A42EFFE435F0CD89F0A42DFEE435F07A
:10009E008067EF4E7005BD80D780C3EF8BF0A4ACA8
:1000AE00F0EE8BF0A42CFCE435F0F8EF8AF0A42CE3
:1000BE00E5F038FCE433CB8DF0A42CFCE5F03BF8F6
:1000CE00EE8AF0A42CFCE5F038F8E433CF89F0A4E6
:1000DE002CFCE5F038CF3400CE89F0A42FFFE5F0EC
:1000EE003EFEE433C98DF0A42EFEE5F039CD8AF044
:1000FE00A42FFFE5F03EFEE43DFD33D0E0FB5007BC
:10010E000BBB000F020278EC2CFCEF33FFEE33FE3C
:06011E00ED33FD0202506A
:10012400020278EC5D046005E85904700302026E73
:10013400120239580460F6EC4860F2EC7004FDFEDB
:10014400FF22C860DB2481C85009C39860025006AE
:100154000202759850CAF582E9294B4A7005AB82B0
:1001640002026475F0007C1A7880C3EF9BEE9AED6E
:1001740099400DC3EF9BFFEE9AFEED99FDE842F026
:10018400DC23ACF0D0E0FFD0E0FED0E0FDAB822079
:10019400E7101BEB60BAEC2CFCEF33FFEE33FEED03
:1001A40033FD020250E803F830E705C0F075F000B3
:1001B400EF2FFFEE33FEED33FD40B830E7C280AAE7
:1001C40075F020800E75F010800575F0087D007EB6
:1001D400007F003392D530D5031202D8EC3340109F
:1001E400EF33FFEE33FEED33FDEC33FCD5F0ED22BF
:0E01F400E5F0247EA2D513CC92E7CDCEFF22FB
:10020200EDD2E7CD33EC3392D524814006E4FFFEF4
:10021200FDFC22FCE4CFCECDCC24E0501174FF8053
:10022200EDC3CC13CCCD13CDCE13CECF13CF0470F0
:07023200F030D5DE0202D816
:10023900E9D2E7C933E833F892D5EDD2E7CD33EC0B
:0702490033FC5002B2D52284
:10025000EC30E7100FBF000C0EBE00080DBD00040F
:100260000BEB6014A2D5EB13FCED92E7FD2274FFBB
:10027000FCFDFEFF22E480F8A2D574FF13FC7D8014
:03028000E480EF28
:030000000203CB2D
:0C03CB00787FE4F6D8FD7581380204123A
:10028300BC000BBE0029EF8DF084FFADF022E4CC5F
:10029300F875F008EF2FFFEE33FEEC33FCEE9DEC28
:1002A300984005FCEE9DFE0FD5F0E9E4CEFD22ED6E
:1002B300F8F5F0EE8420D21CFEADF075F008EF2FB8
:1002C300FFED33FD4007985006D5F0F222C398FDA9
:0502D3000FD5F0EA2246
:0E02D800C3E49FFFE49EFEE49DFDE49CFC2237
:1003D70002073EE493A3F8E493A34003F68001F2F7
:1003E70008DFF48029E493A3F85407240CC8C33327
:1003F700C4540F4420C8834004F456800146F6DFF6
:10040700E4800B010204081020408090075DE47E21
:10041700019360BCA3FF543F30E509541FFEE493EA
:10042700A360010ECF54C025E060A840B8E493A3B1
:10043700FAE493A3F8E493A3C8C582C8CAC583CADC
:10044700F0A3C8C582C8CAC583CADFE9DEE780BE94
:01077A00007E
:00000001FF
